{
	"data": {
		"bytecode": {
			"linkReferences": {},
			"object": "6080604052348015600e575f80fd5b506101288061001c5f395ff3fe6080604052348015600e575f80fd5b50600436106044575f3560e01c80631a8d7dc31460485780635a4236b11460505780639ebb8d20146058578063a8b63e6f146060575b5f80fd5b604e6068565b005b6056607d565b005b605e60ac565b005b606660db565b005b60015f80018190555060505f60010181905550565b604051806040016040528060038152602001605a8152505f80820151815f015560208201518160010155905050565b604051806040016040528060048152602001603c8152505f80820151815f015560208201518160010155905050565b5f600b815f0181905550606481600101819055505056fea26469706673582212204fab049a79f25ce8ea8e42b28d00a652eb1f3909e3970675855222e1c5a0d3ae64736f6c634300081a0033",
			"opcodes": "PUSH1 0x80 PUSH1 0x40 MSTORE CALLVALUE DUP1 ISZERO PUSH1 0xE JUMPI PUSH0 DUP1 REVERT JUMPDEST POP PUSH2 0x128 DUP1 PUSH2 0x1C PUSH0 CODECOPY PUSH0 RETURN INVALID PUSH1 0x80 PUSH1 0x40 MSTORE CALLVALUE DUP1 ISZERO PUSH1 0xE JUMPI PUSH0 DUP1 REVERT JUMPDEST POP PUSH1 0x4 CALLDATASIZE LT PUSH1 0x44 JUMPI PUSH0 CALLDATALOAD PUSH1 0xE0 SHR DUP1 PUSH4 0x1A8D7DC3 EQ PUSH1 0x48 JUMPI DUP1 PUSH4 0x5A4236B1 EQ PUSH1 0x50 JUMPI DUP1 PUSH4 0x9EBB8D20 EQ PUSH1 0x58 JUMPI DUP1 PUSH4 0xA8B63E6F EQ PUSH1 0x60 JUMPI JUMPDEST PUSH0 DUP1 REVERT JUMPDEST PUSH1 0x4E PUSH1 0x68 JUMP JUMPDEST STOP JUMPDEST PUSH1 0x56 PUSH1 0x7D JUMP JUMPDEST STOP JUMPDEST PUSH1 0x5E PUSH1 0xAC JUMP JUMPDEST STOP JUMPDEST PUSH1 0x66 PUSH1 0xDB JUMP JUMPDEST STOP JUMPDEST PUSH1 0x1 PUSH0 DUP1 ADD DUP2 SWAP1 SSTORE POP PUSH1 0x50 PUSH0 PUSH1 0x1 ADD DUP2 SWAP1 SSTORE POP JUMP JUMPDEST PUSH1 0x40 MLOAD DUP1 PUSH1 0x40 ADD PUSH1 0x40 MSTORE DUP1 PUSH1 0x3 DUP2 MSTORE PUSH1 0x20 ADD PUSH1 0x5A DUP2 MSTORE POP PUSH0 DUP1 DUP3 ADD MLOAD DUP2 PUSH0 ADD SSTORE PUSH1 0x20 DUP3 ADD MLOAD DUP2 PUSH1 0x1 ADD SSTORE SWAP1 POP POP JUMP JUMPDEST PUSH1 0x40 MLOAD DUP1 PUSH1 0x40 ADD PUSH1 0x40 MSTORE DUP1 PUSH1 0x4 DUP2 MSTORE PUSH1 0x20 ADD PUSH1 0x3C DUP2 MSTORE POP PUSH0 DUP1 DUP3 ADD MLOAD DUP2 PUSH0 ADD SSTORE PUSH1 0x20 DUP3 ADD MLOAD DUP2 PUSH1 0x1 ADD SSTORE SWAP1 POP POP JUMP JUMPDEST PUSH0 PUSH1 0xB DUP2 PUSH0 ADD DUP2 SWAP1 SSTORE POP PUSH1 0x64 DUP2 PUSH1 0x1 ADD DUP2 SWAP1 SSTORE POP POP JUMP INVALID LOG2 PUSH5 0x6970667358 0x22 SLT KECCAK256 0x4F 0xAB DIV SWAP11 PUSH26 0xF25CE8EA8E42B28D00A652EB1F3909E3970675855222E1C5A0D3 0xAE PUSH5 0x736F6C6343 STOP ADDMOD BYTE STOP CALLER "
		},
		"gasEstimates": {
			"creation": {
				"codeDepositCost": "59200",
				"executionCost": "109",
				"totalCost": "59309"
			},
			"external": {
				"initStudent1()": "44430",
				"initStudent2()": "44359",
				"initStudent3()": "44452",
				"initStudent4()": "44474"
			}
		},
		"methodIdentifiers": {
			"initStudent1()": "a8b63e6f",
			"initStudent2()": "1a8d7dc3",
			"initStudent3()": "5a4236b1",
			"initStudent4()": "9ebb8d20"
		}
	},
	"abi": [
		{
			"inputs": [],
			"name": "initStudent1",
			"outputs": [],
			"stateMutability": "nonpayable",
			"type": "function"
		},
		{
			"inputs": [],
			"name": "initStudent2",
			"outputs": [],
			"stateMutability": "nonpayable",
			"type": "function"
		},
		{
			"inputs": [],
			"name": "initStudent3",
			"outputs": [],
			"stateMutability": "nonpayable",
			"type": "function"
		},
		{
			"inputs": [],
			"name": "initStudent4",
			"outputs": [],
			"stateMutability": "nonpayable",
			"type": "function"
		}
	]
}