{
	"data": {
		"bytecode": {
			"linkReferences": {},
			"object": "608060405260015f553480156012575f80fd5b50610aa5806100205f395ff3fe608060405234801561000f575f80fd5b50600436106100e8575f3560e01c8063aec3d6401161008a578063c5d7802e11610064578063c5d7802e14610206578063cb9f122014610224578063f1e6d19814610242578063febb0f7e14610260576100e8565b8063aec3d640146101c0578063be44f864146101de578063c2985578146101fc576100e8565b80632aca45f1116100c65780632aca45f114610146578063a05f990614610164578063a0d0d59e14610184578063a56dfe4a146101a2576100e8565b806309879682146100ec5780630c55699c1461010a5780631217634914610128575b5f80fd5b6100f461027e565b6040516101019190610576565b60405180910390f35b610112610297565b60405161011f9190610576565b60405180910390f35b61013061029c565b60405161013d9190610576565b60405180910390f35b61014e6102c6565b60405161015b9190610576565b60405180910390f35b61016c6102f6565b60405161017b9392919061063e565b60405180910390f35b61018c61035a565b6040516101999190610576565b60405180910390f35b6101aa61038a565b6040516101b79190610576565b60405180910390f35b6101c8610390565b6040516101d59190610576565b60405180910390f35b6101e66103c3565b6040516101f39190610576565b60405180910390f35b6102046103f0565b005b61020e610446565b60405161021b91906106cc565b60405180910390f35b61022c6104d2565b6040516102399190610576565b60405180910390f35b61024a610511565b6040516102579190610576565b60405180910390f35b61026861053b565b6040516102759190610576565b60405180910390f35b5f600180146102905761028f6106ec565b5b6001905090565b5f5481565b5f600180146102ae576102ad6106ec565b5b600180146102bf576102be6106ec565b5b6001905090565b5f62093a8080146102da576102d96106ec565b5b62093a8080146102ed576102ec6106ec565b5b62093a80905090565b5f8060605f3390505f4390505f80368080601f0160208091040260200160405190810160405280939291908181526020018383808284375f81840152601f19601f820116905080830192505050505050509050828282955095509550505050909192565b5f62015180801461036e5761036d6106ec565b5b620151808014610381576103806106ec565b5b62015180905090565b60015481565b5f633b9aca0080146103a5576103a46106ec565b5b633b9aca0080146103b9576103b86106ec565b5b633b9aca00905090565b5f610e1080146103d6576103d56106ec565b5b610e1080146103e8576103e76106ec565b5b610e10905090565b60055f8190555060026001819055506040518060400160405280600481526020017f3078414100000000000000000000000000000000000000000000000000000000815250600290816104439190610940565b50565b6002805461045390610773565b80601f016020809104026020016040519081016040528092919081815260200182805461047f90610773565b80156104ca5780601f106104a1576101008083540402835291602001916104ca565b820191905f5260205f20905b8154815290600101906020018083116104ad57829003601f168201915b505050505081565b5f670de0b6b3a764000080146104eb576104ea6106ec565b5b670de0b6b3a76400008014610503576105026106ec565b5b670de0b6b3a7640000905090565b5f603c8014610523576105226106ec565b5b603c8014610534576105336106ec565b5b603c905090565b5f80600190505f600390505f81836105539190610a3c565b905080935050505090565b5f819050919050565b6105708161055e565b82525050565b5f6020820190506105895f830184610567565b92915050565b5f73ffffffffffffffffffffffffffffffffffffffff82169050919050565b5f6105b88261058f565b9050919050565b6105c8816105ae565b82525050565b5f81519050919050565b5f82825260208201905092915050565b8281835e5f83830152505050565b5f601f19601f8301169050919050565b5f610610826105ce565b61061a81856105d8565b935061062a8185602086016105e8565b610633816105f6565b840191505092915050565b5f6060820190506106515f8301866105bf565b61065e6020830185610567565b81810360408301526106708184610606565b9050949350505050565b5f81519050919050565b5f82825260208201905092915050565b5f61069e8261067a565b6106a88185610684565b93506106b88185602086016105e8565b6106c1816105f6565b840191505092915050565b5f6020820190508181035f8301526106e48184610694565b905092915050565b7f4e487b71000000000000000000000000000000000000000000000000000000005f52600160045260245ffd5b7f4e487b71000000000000000000000000000000000000000000000000000000005f52604160045260245ffd5b7f4e487b71000000000000000000000000000000000000000000000000000000005f52602260045260245ffd5b5f600282049050600182168061078a57607f821691505b60208210810361079d5761079c610746565b5b50919050565b5f819050815f5260205f209050919050565b5f6020601f8301049050919050565b5f82821b905092915050565b5f600883026107ff7fffffffffffffffffffffffffffffffffffffffffffffffffffffffffffffffff826107c4565b61080986836107c4565b95508019841693508086168417925050509392505050565b5f819050919050565b5f61084461083f61083a8461055e565b610821565b61055e565b9050919050565b5f819050919050565b61085d8361082a565b6108716108698261084b565b8484546107d0565b825550505050565b5f90565b610885610879565b610890818484610854565b505050565b5b818110156108b3576108a85f8261087d565b600181019050610896565b5050565b601f8211156108f8576108c9816107a3565b6108d2846107b5565b810160208510156108e1578190505b6108f56108ed856107b5565b830182610895565b50505b505050565b5f82821c905092915050565b5f6109185f19846008026108fd565b1980831691505092915050565b5f6109308383610909565b9150826002028217905092915050565b6109498261067a565b67ffffffffffffffff81111561096257610961610719565b5b61096c8254610773565b6109778282856108b7565b5f60209050601f8311600181146109a8575f8415610996578287015190505b6109a08582610925565b865550610a07565b601f1984166109b6866107a3565b5f5b828110156109dd578489015182556001820191506020850194506020810190506109b8565b868310156109fa57848901516109f6601f891682610909565b8355505b6001600288020188555050505b505050505050565b7f4e487b71000000000000000000000000000000000000000000000000000000005f52601160045260245ffd5b5f610a468261055e565b9150610a518361055e565b9250828201905080821115610a6957610a68610a0f565b5b9291505056fea2646970667358221220997e92503d6cc311bccd311b8111221020b523f8102c8d2ff093fef9dad36f9464736f6c634300081a0033",
			"opcodes": "PUSH1 0x80 PUSH1 0x40 MSTORE PUSH1 0x1 PUSH0 SSTORE CALLVALUE DUP1 ISZERO PUSH1 0x12 JUMPI PUSH0 DUP1 REVERT JUMPDEST POP PUSH2 0xAA5 DUP1 PUSH2 0x20 PUSH0 CODECOPY PUSH0 RETURN INVALID PUSH1 0x80 PUSH1 0x40 MSTORE CALLVALUE DUP1 ISZERO PUSH2 0xF JUMPI PUSH0 DUP1 REVERT JUMPDEST POP PUSH1 0x4 CALLDATASIZE LT PUSH2 0xE8 JUMPI PUSH0 CALLDATALOAD PUSH1 0xE0 SHR DUP1 PUSH4 0xAEC3D640 GT PUSH2 0x8A JUMPI DUP1 PUSH4 0xC5D7802E GT PUSH2 0x64 JUMPI DUP1 PUSH4 0xC5D7802E EQ PUSH2 0x206 JUMPI DUP1 PUSH4 0xCB9F1220 EQ PUSH2 0x224 JUMPI DUP1 PUSH4 0xF1E6D198 EQ PUSH2 0x242 JUMPI DUP1 PUSH4 0xFEBB0F7E EQ PUSH2 0x260 JUMPI PUSH2 0xE8 JUMP JUMPDEST DUP1 PUSH4 0xAEC3D640 EQ PUSH2 0x1C0 JUMPI DUP1 PUSH4 0xBE44F864 EQ PUSH2 0x1DE JUMPI DUP1 PUSH4 0xC2985578 EQ PUSH2 0x1FC JUMPI PUSH2 0xE8 JUMP JUMPDEST DUP1 PUSH4 0x2ACA45F1 GT PUSH2 0xC6 JUMPI DUP1 PUSH4 0x2ACA45F1 EQ PUSH2 0x146 JUMPI DUP1 PUSH4 0xA05F9906 EQ PUSH2 0x164 JUMPI DUP1 PUSH4 0xA0D0D59E EQ PUSH2 0x184 JUMPI DUP1 PUSH4 0xA56DFE4A EQ PUSH2 0x1A2 JUMPI PUSH2 0xE8 JUMP JUMPDEST DUP1 PUSH4 0x9879682 EQ PUSH2 0xEC JUMPI DUP1 PUSH4 0xC55699C EQ PUSH2 0x10A JUMPI DUP1 PUSH4 0x12176349 EQ PUSH2 0x128 JUMPI JUMPDEST PUSH0 DUP1 REVERT JUMPDEST PUSH2 0xF4 PUSH2 0x27E JUMP JUMPDEST PUSH1 0x40 MLOAD PUSH2 0x101 SWAP2 SWAP1 PUSH2 0x576 JUMP JUMPDEST PUSH1 0x40 MLOAD DUP1 SWAP2 SUB SWAP1 RETURN JUMPDEST PUSH2 0x112 PUSH2 0x297 JUMP JUMPDEST PUSH1 0x40 MLOAD PUSH2 0x11F SWAP2 SWAP1 PUSH2 0x576 JUMP JUMPDEST PUSH1 0x40 MLOAD DUP1 SWAP2 SUB SWAP1 RETURN JUMPDEST PUSH2 0x130 PUSH2 0x29C JUMP JUMPDEST PUSH1 0x40 MLOAD PUSH2 0x13D SWAP2 SWAP1 PUSH2 0x576 JUMP JUMPDEST PUSH1 0x40 MLOAD DUP1 SWAP2 SUB SWAP1 RETURN JUMPDEST PUSH2 0x14E PUSH2 0x2C6 JUMP JUMPDEST PUSH1 0x40 MLOAD PUSH2 0x15B SWAP2 SWAP1 PUSH2 0x576 JUMP JUMPDEST PUSH1 0x40 MLOAD DUP1 SWAP2 SUB SWAP1 RETURN JUMPDEST PUSH2 0x16C PUSH2 0x2F6 JUMP JUMPDEST PUSH1 0x40 MLOAD PUSH2 0x17B SWAP4 SWAP3 SWAP2 SWAP1 PUSH2 0x63E JUMP JUMPDEST PUSH1 0x40 MLOAD DUP1 SWAP2 SUB SWAP1 RETURN JUMPDEST PUSH2 0x18C PUSH2 0x35A JUMP JUMPDEST PUSH1 0x40 MLOAD PUSH2 0x199 SWAP2 SWAP1 PUSH2 0x576 JUMP JUMPDEST PUSH1 0x40 MLOAD DUP1 SWAP2 SUB SWAP1 RETURN JUMPDEST PUSH2 0x1AA PUSH2 0x38A JUMP JUMPDEST PUSH1 0x40 MLOAD PUSH2 0x1B7 SWAP2 SWAP1 PUSH2 0x576 JUMP JUMPDEST PUSH1 0x40 MLOAD DUP1 SWAP2 SUB SWAP1 RETURN JUMPDEST PUSH2 0x1C8 PUSH2 0x390 JUMP JUMPDEST PUSH1 0x40 MLOAD PUSH2 0x1D5 SWAP2 SWAP1 PUSH2 0x576 JUMP JUMPDEST PUSH1 0x40 MLOAD DUP1 SWAP2 SUB SWAP1 RETURN JUMPDEST PUSH2 0x1E6 PUSH2 0x3C3 JUMP JUMPDEST PUSH1 0x40 MLOAD PUSH2 0x1F3 SWAP2 SWAP1 PUSH2 0x576 JUMP JUMPDEST PUSH1 0x40 MLOAD DUP1 SWAP2 SUB SWAP1 RETURN JUMPDEST PUSH2 0x204 PUSH2 0x3F0 JUMP JUMPDEST STOP JUMPDEST PUSH2 0x20E PUSH2 0x446 JUMP JUMPDEST PUSH1 0x40 MLOAD PUSH2 0x21B SWAP2 SWAP1 PUSH2 0x6CC JUMP JUMPDEST PUSH1 0x40 MLOAD DUP1 SWAP2 SUB SWAP1 RETURN JUMPDEST PUSH2 0x22C PUSH2 0x4D2 JUMP JUMPDEST PUSH1 0x40 MLOAD PUSH2 0x239 SWAP2 SWAP1 PUSH2 0x576 JUMP JUMPDEST PUSH1 0x40 MLOAD DUP1 SWAP2 SUB SWAP1 RETURN JUMPDEST PUSH2 0x24A PUSH2 0x511 JUMP JUMPDEST PUSH1 0x40 MLOAD PUSH2 0x257 SWAP2 SWAP1 PUSH2 0x576 JUMP JUMPDEST PUSH1 0x40 MLOAD DUP1 SWAP2 SUB SWAP1 RETURN JUMPDEST PUSH2 0x268 PUSH2 0x53B JUMP JUMPDEST PUSH1 0x40 MLOAD PUSH2 0x275 SWAP2 SWAP1 PUSH2 0x576 JUMP JUMPDEST PUSH1 0x40 MLOAD DUP1 SWAP2 SUB SWAP1 RETURN JUMPDEST PUSH0 PUSH1 0x1 DUP1 EQ PUSH2 0x290 JUMPI PUSH2 0x28F PUSH2 0x6EC JUMP JUMPDEST JUMPDEST PUSH1 0x1 SWAP1 POP SWAP1 JUMP JUMPDEST PUSH0 SLOAD DUP2 JUMP JUMPDEST PUSH0 PUSH1 0x1 DUP1 EQ PUSH2 0x2AE JUMPI PUSH2 0x2AD PUSH2 0x6EC JUMP JUMPDEST JUMPDEST PUSH1 0x1 DUP1 EQ PUSH2 0x2BF JUMPI PUSH2 0x2BE PUSH2 0x6EC JUMP JUMPDEST JUMPDEST PUSH1 0x1 SWAP1 POP SWAP1 JUMP JUMPDEST PUSH0 PUSH3 0x93A80 DUP1 EQ PUSH2 0x2DA JUMPI PUSH2 0x2D9 PUSH2 0x6EC JUMP JUMPDEST JUMPDEST PUSH3 0x93A80 DUP1 EQ PUSH2 0x2ED JUMPI PUSH2 0x2EC PUSH2 0x6EC JUMP JUMPDEST JUMPDEST PUSH3 0x93A80 SWAP1 POP SWAP1 JUMP JUMPDEST PUSH0 DUP1 PUSH1 0x60 PUSH0 CALLER SWAP1 POP PUSH0 NUMBER SWAP1 POP PUSH0 DUP1 CALLDATASIZE DUP1 DUP1 PUSH1 0x1F ADD PUSH1 0x20 DUP1 SWAP2 DIV MUL PUSH1 0x20 ADD PUSH1 0x40 MLOAD SWAP1 DUP2 ADD PUSH1 0x40 MSTORE DUP1 SWAP4 SWAP3 SWAP2 SWAP1 DUP2 DUP2 MSTORE PUSH1 0x20 ADD DUP4 DUP4 DUP1 DUP3 DUP5 CALLDATACOPY PUSH0 DUP2 DUP5 ADD MSTORE PUSH1 0x1F NOT PUSH1 0x1F DUP3 ADD AND SWAP1 POP DUP1 DUP4 ADD SWAP3 POP POP POP POP POP POP POP SWAP1 POP DUP3 DUP3 DUP3 SWAP6 POP SWAP6 POP SWAP6 POP POP POP POP SWAP1 SWAP2 SWAP3 JUMP JUMPDEST PUSH0 PUSH3 0x15180 DUP1 EQ PUSH2 0x36E JUMPI PUSH2 0x36D PUSH2 0x6EC JUMP JUMPDEST JUMPDEST PUSH3 0x15180 DUP1 EQ PUSH2 0x381 JUMPI PUSH2 0x380 PUSH2 0x6EC JUMP JUMPDEST JUMPDEST PUSH3 0x15180 SWAP1 POP SWAP1 JUMP JUMPDEST PUSH1 0x1 SLOAD DUP2 JUMP JUMPDEST PUSH0 PUSH4 0x3B9ACA00 DUP1 EQ PUSH2 0x3A5 JUMPI PUSH2 0x3A4 PUSH2 0x6EC JUMP JUMPDEST JUMPDEST PUSH4 0x3B9ACA00 DUP1 EQ PUSH2 0x3B9 JUMPI PUSH2 0x3B8 PUSH2 0x6EC JUMP JUMPDEST JUMPDEST PUSH4 0x3B9ACA00 SWAP1 POP SWAP1 JUMP JUMPDEST PUSH0 PUSH2 0xE10 DUP1 EQ PUSH2 0x3D6 JUMPI PUSH2 0x3D5 PUSH2 0x6EC JUMP JUMPDEST JUMPDEST PUSH2 0xE10 DUP1 EQ PUSH2 0x3E8 JUMPI PUSH2 0x3E7 PUSH2 0x6EC JUMP JUMPDEST JUMPDEST PUSH2 0xE10 SWAP1 POP SWAP1 JUMP JUMPDEST PUSH1 0x5 PUSH0 DUP2 SWAP1 SSTORE POP PUSH1 0x2 PUSH1 0x1 DUP2 SWAP1 SSTORE POP PUSH1 0x40 MLOAD DUP1 PUSH1 0x40 ADD PUSH1 0x40 MSTORE DUP1 PUSH1 0x4 DUP2 MSTORE PUSH1 0x20 ADD PUSH32 0x3078414100000000000000000000000000000000000000000000000000000000 DUP2 MSTORE POP PUSH1 0x2 SWAP1 DUP2 PUSH2 0x443 SWAP2 SWAP1 PUSH2 0x940 JUMP JUMPDEST POP JUMP JUMPDEST PUSH1 0x2 DUP1 SLOAD PUSH2 0x453 SWAP1 PUSH2 0x773 JUMP JUMPDEST DUP1 PUSH1 0x1F ADD PUSH1 0x20 DUP1 SWAP2 DIV MUL PUSH1 0x20 ADD PUSH1 0x40 MLOAD SWAP1 DUP2 ADD PUSH1 0x40 MSTORE DUP1 SWAP3 SWAP2 SWAP1 DUP2 DUP2 MSTORE PUSH1 0x20 ADD DUP3 DUP1 SLOAD PUSH2 0x47F SWAP1 PUSH2 0x773 JUMP JUMPDEST DUP1 ISZERO PUSH2 0x4CA JUMPI DUP1 PUSH1 0x1F LT PUSH2 0x4A1 JUMPI PUSH2 0x100 DUP1 DUP4 SLOAD DIV MUL DUP4 MSTORE SWAP2 PUSH1 0x20 ADD SWAP2 PUSH2 0x4CA JUMP JUMPDEST DUP3 ADD SWAP2 SWAP1 PUSH0 MSTORE PUSH1 0x20 PUSH0 KECCAK256 SWAP1 JUMPDEST DUP2 SLOAD DUP2 MSTORE SWAP1 PUSH1 0x1 ADD SWAP1 PUSH1 0x20 ADD DUP1 DUP4 GT PUSH2 0x4AD JUMPI DUP3 SWAP1 SUB PUSH1 0x1F AND DUP3 ADD SWAP2 JUMPDEST POP POP POP POP POP DUP2 JUMP JUMPDEST PUSH0 PUSH8 0xDE0B6B3A7640000 DUP1 EQ PUSH2 0x4EB JUMPI PUSH2 0x4EA PUSH2 0x6EC JUMP JUMPDEST JUMPDEST PUSH8 0xDE0B6B3A7640000 DUP1 EQ PUSH2 0x503 JUMPI PUSH2 0x502 PUSH2 0x6EC JUMP JUMPDEST JUMPDEST PUSH8 0xDE0B6B3A7640000 SWAP1 POP SWAP1 JUMP JUMPDEST PUSH0 PUSH1 0x3C DUP1 EQ PUSH2 0x523 JUMPI PUSH2 0x522 PUSH2 0x6EC JUMP JUMPDEST JUMPDEST PUSH1 0x3C DUP1 EQ PUSH2 0x534 JUMPI PUSH2 0x533 PUSH2 0x6EC JUMP JUMPDEST JUMPDEST PUSH1 0x3C SWAP1 POP SWAP1 JUMP JUMPDEST PUSH0 DUP1 PUSH1 0x1 SWAP1 POP PUSH0 PUSH1 0x3 SWAP1 POP PUSH0 DUP2 DUP4 PUSH2 0x553 SWAP2 SWAP1 PUSH2 0xA3C JUMP JUMPDEST SWAP1 POP DUP1 SWAP4 POP POP POP POP SWAP1 JUMP JUMPDEST PUSH0 DUP2 SWAP1 POP SWAP2 SWAP1 POP JUMP JUMPDEST PUSH2 0x570 DUP2 PUSH2 0x55E JUMP JUMPDEST DUP3 MSTORE POP POP JUMP JUMPDEST PUSH0 PUSH1 0x20 DUP3 ADD SWAP1 POP PUSH2 0x589 PUSH0 DUP4 ADD DUP5 PUSH2 0x567 JUMP JUMPDEST SWAP3 SWAP2 POP POP JUMP JUMPDEST PUSH0 PUSH20 0xFFFFFFFFFFFFFFFFFFFFFFFFFFFFFFFFFFFFFFFF DUP3 AND SWAP1 POP SWAP2 SWAP1 POP JUMP JUMPDEST PUSH0 PUSH2 0x5B8 DUP3 PUSH2 0x58F JUMP JUMPDEST SWAP1 POP SWAP2 SWAP1 POP JUMP JUMPDEST PUSH2 0x5C8 DUP2 PUSH2 0x5AE JUMP JUMPDEST DUP3 MSTORE POP POP JUMP JUMPDEST PUSH0 DUP2 MLOAD SWAP1 POP SWAP2 SWAP1 POP JUMP JUMPDEST PUSH0 DUP3 DUP3 MSTORE PUSH1 0x20 DUP3 ADD SWAP1 POP SWAP3 SWAP2 POP POP JUMP JUMPDEST DUP3 DUP2 DUP4 MCOPY PUSH0 DUP4 DUP4 ADD MSTORE POP POP POP JUMP JUMPDEST PUSH0 PUSH1 0x1F NOT PUSH1 0x1F DUP4 ADD AND SWAP1 POP SWAP2 SWAP1 POP JUMP JUMPDEST PUSH0 PUSH2 0x610 DUP3 PUSH2 0x5CE JUMP JUMPDEST PUSH2 0x61A DUP2 DUP6 PUSH2 0x5D8 JUMP JUMPDEST SWAP4 POP PUSH2 0x62A DUP2 DUP6 PUSH1 0x20 DUP7 ADD PUSH2 0x5E8 JUMP JUMPDEST PUSH2 0x633 DUP2 PUSH2 0x5F6 JUMP JUMPDEST DUP5 ADD SWAP2 POP POP SWAP3 SWAP2 POP POP JUMP JUMPDEST PUSH0 PUSH1 0x60 DUP3 ADD SWAP1 POP PUSH2 0x651 PUSH0 DUP4 ADD DUP7 PUSH2 0x5BF JUMP JUMPDEST PUSH2 0x65E PUSH1 0x20 DUP4 ADD DUP6 PUSH2 0x567 JUMP JUMPDEST DUP2 DUP2 SUB PUSH1 0x40 DUP4 ADD MSTORE PUSH2 0x670 DUP2 DUP5 PUSH2 0x606 JUMP JUMPDEST SWAP1 POP SWAP5 SWAP4 POP POP POP POP JUMP JUMPDEST PUSH0 DUP2 MLOAD SWAP1 POP SWAP2 SWAP1 POP JUMP JUMPDEST PUSH0 DUP3 DUP3 MSTORE PUSH1 0x20 DUP3 ADD SWAP1 POP SWAP3 SWAP2 POP POP JUMP JUMPDEST PUSH0 PUSH2 0x69E DUP3 PUSH2 0x67A JUMP JUMPDEST PUSH2 0x6A8 DUP2 DUP6 PUSH2 0x684 JUMP JUMPDEST SWAP4 POP PUSH2 0x6B8 DUP2 DUP6 PUSH1 0x20 DUP7 ADD PUSH2 0x5E8 JUMP JUMPDEST PUSH2 0x6C1 DUP2 PUSH2 0x5F6 JUMP JUMPDEST DUP5 ADD SWAP2 POP POP SWAP3 SWAP2 POP POP JUMP JUMPDEST PUSH0 PUSH1 0x20 DUP3 ADD SWAP1 POP DUP2 DUP2 SUB PUSH0 DUP4 ADD MSTORE PUSH2 0x6E4 DUP2 DUP5 PUSH2 0x694 JUMP JUMPDEST SWAP1 POP SWAP3 SWAP2 POP POP JUMP JUMPDEST PUSH32 0x4E487B7100000000000000000000000000000000000000000000000000000000 PUSH0 MSTORE PUSH1 0x1 PUSH1 0x4 MSTORE PUSH1 0x24 PUSH0 REVERT JUMPDEST PUSH32 0x4E487B7100000000000000000000000000000000000000000000000000000000 PUSH0 MSTORE PUSH1 0x41 PUSH1 0x4 MSTORE PUSH1 0x24 PUSH0 REVERT JUMPDEST PUSH32 0x4E487B7100000000000000000000000000000000000000000000000000000000 PUSH0 MSTORE PUSH1 0x22 PUSH1 0x4 MSTORE PUSH1 0x24 PUSH0 REVERT JUMPDEST PUSH0 PUSH1 0x2 DUP3 DIV SWAP1 POP PUSH1 0x1 DUP3 AND DUP1 PUSH2 0x78A JUMPI PUSH1 0x7F DUP3 AND SWAP2 POP JUMPDEST PUSH1 0x20 DUP3 LT DUP2 SUB PUSH2 0x79D JUMPI PUSH2 0x79C PUSH2 0x746 JUMP JUMPDEST JUMPDEST POP SWAP2 SWAP1 POP JUMP JUMPDEST PUSH0 DUP2 SWAP1 POP DUP2 PUSH0 MSTORE PUSH1 0x20 PUSH0 KECCAK256 SWAP1 POP SWAP2 SWAP1 POP JUMP JUMPDEST PUSH0 PUSH1 0x20 PUSH1 0x1F DUP4 ADD DIV SWAP1 POP SWAP2 SWAP1 POP JUMP JUMPDEST PUSH0 DUP3 DUP3 SHL SWAP1 POP SWAP3 SWAP2 POP POP JUMP JUMPDEST PUSH0 PUSH1 0x8 DUP4 MUL PUSH2 0x7FF PUSH32 0xFFFFFFFFFFFFFFFFFFFFFFFFFFFFFFFFFFFFFFFFFFFFFFFFFFFFFFFFFFFFFFFF DUP3 PUSH2 0x7C4 JUMP JUMPDEST PUSH2 0x809 DUP7 DUP4 PUSH2 0x7C4 JUMP JUMPDEST SWAP6 POP DUP1 NOT DUP5 AND SWAP4 POP DUP1 DUP7 AND DUP5 OR SWAP3 POP POP POP SWAP4 SWAP3 POP POP POP JUMP JUMPDEST PUSH0 DUP2 SWAP1 POP SWAP2 SWAP1 POP JUMP JUMPDEST PUSH0 PUSH2 0x844 PUSH2 0x83F PUSH2 0x83A DUP5 PUSH2 0x55E JUMP JUMPDEST PUSH2 0x821 JUMP JUMPDEST PUSH2 0x55E JUMP JUMPDEST SWAP1 POP SWAP2 SWAP1 POP JUMP JUMPDEST PUSH0 DUP2 SWAP1 POP SWAP2 SWAP1 POP JUMP JUMPDEST PUSH2 0x85D DUP4 PUSH2 0x82A JUMP JUMPDEST PUSH2 0x871 PUSH2 0x869 DUP3 PUSH2 0x84B JUMP JUMPDEST DUP5 DUP5 SLOAD PUSH2 0x7D0 JUMP JUMPDEST DUP3 SSTORE POP POP POP POP JUMP JUMPDEST PUSH0 SWAP1 JUMP JUMPDEST PUSH2 0x885 PUSH2 0x879 JUMP JUMPDEST PUSH2 0x890 DUP2 DUP5 DUP5 PUSH2 0x854 JUMP JUMPDEST POP POP POP JUMP JUMPDEST JUMPDEST DUP2 DUP2 LT ISZERO PUSH2 0x8B3 JUMPI PUSH2 0x8A8 PUSH0 DUP3 PUSH2 0x87D JUMP JUMPDEST PUSH1 0x1 DUP2 ADD SWAP1 POP PUSH2 0x896 JUMP JUMPDEST POP POP JUMP JUMPDEST PUSH1 0x1F DUP3 GT ISZERO PUSH2 0x8F8 JUMPI PUSH2 0x8C9 DUP2 PUSH2 0x7A3 JUMP JUMPDEST PUSH2 0x8D2 DUP5 PUSH2 0x7B5 JUMP JUMPDEST DUP2 ADD PUSH1 0x20 DUP6 LT ISZERO PUSH2 0x8E1 JUMPI DUP2 SWAP1 POP JUMPDEST PUSH2 0x8F5 PUSH2 0x8ED DUP6 PUSH2 0x7B5 JUMP JUMPDEST DUP4 ADD DUP3 PUSH2 0x895 JUMP JUMPDEST POP POP JUMPDEST POP POP POP JUMP JUMPDEST PUSH0 DUP3 DUP3 SHR SWAP1 POP SWAP3 SWAP2 POP POP JUMP JUMPDEST PUSH0 PUSH2 0x918 PUSH0 NOT DUP5 PUSH1 0x8 MUL PUSH2 0x8FD JUMP JUMPDEST NOT DUP1 DUP4 AND SWAP2 POP POP SWAP3 SWAP2 POP POP JUMP JUMPDEST PUSH0 PUSH2 0x930 DUP4 DUP4 PUSH2 0x909 JUMP JUMPDEST SWAP2 POP DUP3 PUSH1 0x2 MUL DUP3 OR SWAP1 POP SWAP3 SWAP2 POP POP JUMP JUMPDEST PUSH2 0x949 DUP3 PUSH2 0x67A JUMP JUMPDEST PUSH8 0xFFFFFFFFFFFFFFFF DUP2 GT ISZERO PUSH2 0x962 JUMPI PUSH2 0x961 PUSH2 0x719 JUMP JUMPDEST JUMPDEST PUSH2 0x96C DUP3 SLOAD PUSH2 0x773 JUMP JUMPDEST PUSH2 0x977 DUP3 DUP3 DUP6 PUSH2 0x8B7 JUMP JUMPDEST PUSH0 PUSH1 0x20 SWAP1 POP PUSH1 0x1F DUP4 GT PUSH1 0x1 DUP2 EQ PUSH2 0x9A8 JUMPI PUSH0 DUP5 ISZERO PUSH2 0x996 JUMPI DUP3 DUP8 ADD MLOAD SWAP1 POP JUMPDEST PUSH2 0x9A0 DUP6 DUP3 PUSH2 0x925 JUMP JUMPDEST DUP7 SSTORE POP PUSH2 0xA07 JUMP JUMPDEST PUSH1 0x1F NOT DUP5 AND PUSH2 0x9B6 DUP7 PUSH2 0x7A3 JUMP JUMPDEST PUSH0 JUMPDEST DUP3 DUP2 LT ISZERO PUSH2 0x9DD JUMPI DUP5 DUP10 ADD MLOAD DUP3 SSTORE PUSH1 0x1 DUP3 ADD SWAP2 POP PUSH1 0x20 DUP6 ADD SWAP5 POP PUSH1 0x20 DUP2 ADD SWAP1 POP PUSH2 0x9B8 JUMP JUMPDEST DUP7 DUP4 LT ISZERO PUSH2 0x9FA JUMPI DUP5 DUP10 ADD MLOAD PUSH2 0x9F6 PUSH1 0x1F DUP10 AND DUP3 PUSH2 0x909 JUMP JUMPDEST DUP4 SSTORE POP JUMPDEST PUSH1 0x1 PUSH1 0x2 DUP9 MUL ADD DUP9 SSTORE POP POP POP JUMPDEST POP POP POP POP POP POP JUMP JUMPDEST PUSH32 0x4E487B7100000000000000000000000000000000000000000000000000000000 PUSH0 MSTORE PUSH1 0x11 PUSH1 0x4 MSTORE PUSH1 0x24 PUSH0 REVERT JUMPDEST PUSH0 PUSH2 0xA46 DUP3 PUSH2 0x55E JUMP JUMPDEST SWAP2 POP PUSH2 0xA51 DUP4 PUSH2 0x55E JUMP JUMPDEST SWAP3 POP DUP3 DUP3 ADD SWAP1 POP DUP1 DUP3 GT ISZERO PUSH2 0xA69 JUMPI PUSH2 0xA68 PUSH2 0xA0F JUMP JUMPDEST JUMPDEST SWAP3 SWAP2 POP POP JUMP INVALID LOG2 PUSH5 0x6970667358 0x22 SLT KECCAK256 SWAP10 PUSH31 0x92503D6CC311BCCD311B8111221020B523F8102C8D2FF093FEF9DAD36F9464 PUSH20 0x6F6C634300081A00330000000000000000000000 "
		},
		"gasEstimates": {
			"creation": {
				"codeDepositCost": "545000",
				"executionCost": "22684",
				"totalCost": "567684"
			},
			"external": {
				"bar()": "infinite",
				"daysUnit()": "445",
				"etherUnit()": "422",
				"foo()": "infinite",
				"global()": "infinite",
				"gweiUnit()": "401",
				"hoursUnit()": "423",
				"minutesUnit()": "444",
				"secondsUnit()": "379",
				"weeksUnit()": "401",
				"weiUnit()": "446",
				"x()": "2470",
				"y()": "2514",
				"z()": "infinite"
			}
		},
		"methodIdentifiers": {
			"bar()": "febb0f7e",
			"daysUnit()": "a0d0d59e",
			"etherUnit()": "cb9f1220",
			"foo()": "c2985578",
			"global()": "a05f9906",
			"gweiUnit()": "aec3d640",
			"hoursUnit()": "be44f864",
			"minutesUnit()": "f1e6d198",
			"secondsUnit()": "09879682",
			"weeksUnit()": "2aca45f1",
			"weiUnit()": "12176349",
			"x()": "0c55699c",
			"y()": "a56dfe4a",
			"z()": "c5d7802e"
		}
	},
	"abi": [
		{
			"inputs": [],
			"name": "bar",
			"outputs": [
				{
					"internalType": "uint256",
					"name": "",
					"type": "uint256"
				}
			],
			"stateMutability": "pure",
			"type": "function"
		},
		{
			"inputs": [],
			"name": "daysUnit",
			"outputs": [
				{
					"internalType": "uint256",
					"name": "",
					"type": "uint256"
				}
			],
			"stateMutability": "pure",
			"type": "function"
		},
		{
			"inputs": [],
			"name": "etherUnit",
			"outputs": [
				{
					"internalType": "uint256",
					"name": "",
					"type": "uint256"
				}
			],
			"stateMutability": "pure",
			"type": "function"
		},
		{
			"inputs": [],
			"name": "foo",
			"outputs": [],
			"stateMutability": "nonpayable",
			"type": "function"
		},
		{
			"inputs": [],
			"name": "global",
			"outputs": [
				{
					"internalType": "address",
					"name": "",
					"type": "address"
				},
				{
					"internalType": "uint256",
					"name": "",
					"type": "uint256"
				},
				{
					"internalType": "bytes",
					"name": "",
					"type": "bytes"
				}
			],
			"stateMutability": "view",
			"type": "function"
		},
		{
			"inputs": [],
			"name": "gweiUnit",
			"outputs": [
				{
					"internalType": "uint256",
					"name": "",
					"type": "uint256"
				}
			],
			"stateMutability": "pure",
			"type": "function"
		},
		{
			"inputs": [],
			"name": "hoursUnit",
			"outputs": [
				{
					"internalType": "uint256",
					"name": "",
					"type": "uint256"
				}
			],
			"stateMutability": "pure",
			"type": "function"
		},
		{
			"inputs": [],
			"name": "minutesUnit",
			"outputs": [
				{
					"internalType": "uint256",
					"name": "",
					"type": "uint256"
				}
			],
			"stateMutability": "pure",
			"type": "function"
		},
		{
			"inputs": [],
			"name": "secondsUnit",
			"outputs": [
				{
					"internalType": "uint256",
					"name": "",
					"type": "uint256"
				}
			],
			"stateMutability": "pure",
			"type": "function"
		},
		{
			"inputs": [],
			"name": "weeksUnit",
			"outputs": [
				{
					"internalType": "uint256",
					"name": "",
					"type": "uint256"
				}
			],
			"stateMutability": "pure",
			"type": "function"
		},
		{
			"inputs": [],
			"name": "weiUnit",
			"outputs": [
				{
					"internalType": "uint256",
					"name": "",
					"type": "uint256"
				}
			],
			"stateMutability": "pure",
			"type": "function"
		},
		{
			"inputs": [],
			"name": "x",
			"outputs": [
				{
					"internalType": "uint256",
					"name": "",
					"type": "uint256"
				}
			],
			"stateMutability": "view",
			"type": "function"
		},
		{
			"inputs": [],
			"name": "y",
			"outputs": [
				{
					"internalType": "uint256",
					"name": "",
					"type": "uint256"
				}
			],
			"stateMutability": "view",
			"type": "function"
		},
		{
			"inputs": [],
			"name": "z",
			"outputs": [
				{
					"internalType": "string",
					"name": "",
					"type": "string"
				}
			],
			"stateMutability": "view",
			"type": "function"
		}
	]
}